:020000040000FA
:060000000A128A11FC2F18
:100F0E0083160317880189018316031386010130A6
:100F1E008500831203138601860108000A128A11C6
:100F2E0087270A128A11E8300A128A11D1270A126B
:100F3E008A11831203130518A52FA62FA02F0A12AC
:100F4E008A11AF270A128A11A02F0A128A110028BD
:100F5E0083120313061086100615E8300A128A1142
:100F6E00D1270A128A118312031306108614061152
:100F7E00E8300A128A11D1270A128A11831203133A
:100F8E00061486100611E8300A128A11D1270A12A9
:100F9E008A110800F001F101F201F3010130F207AC
:100FAE000318F30A0030F3077308803AFF0080300D
:100FBE007F02031DE42FFF307202031CE72FE82F80
:100FCE00D52F0130F0070318F10A0030F107710830
:100FDE00803AFF0080307F02031DF72FFF30700232
:100FEE00031CFA2FFB2FD32F080083010A128A113C
:020FFE00952F2D
:04400E00F420FF3F5C
:00000001FF
